:03000000020C6F80
:0C0C6F00787FE4F6D8FD75814C020CB6CD
:100F590001490002230000014800012100014B0062
:0B0F6900014C1C014A00012200C18065
:0E103700120F81120FC9121045120D6480F8BD
:100FC9001210117BFF7A0D79BE7D407C1F120E68CD
:0D0FD9007BFF7A0F79A97DE87C03020E688A
:101011005389F0438901758CFC758A18D2AFD2A926
:03102100D28C224C
:03000B00021024BC
:10102400C0E0758CFC758A180524E524700205233C
:03103400D0E032D7
:100E6800E549C394055037E54975F007A42425F8EA
:100E7800A60308A60208A601E54975F007A42428D8
:100E8800F8A60408A605E5242DFFE5233CFEE54960
:0F0E980075F007A4242AF8A60608A60705492224
:100DBE00120CFBAC06AD07E4120A7CE4FBFA798058
:100DCE00783D1208F8120AB58F488F21C3E5489571
:100DDE0021FFE49400FE7C007D64120B36AC06AD60
:100DEE0007EC120A7CE4FBFAF9783F120807120AA4
:100DFE00B58F4B300007AD4BAF21020EA77F3C7E67
:050E0E0000120F30226C
:100FA900E548C394195005121062800AE548D394A4
:100FB9001E400612105F021052120BB11210572276
:100D6400E4F508E508C39549504FE50875F007A474
:100D7400242AF8E6FE08E6FFC3E5249FE5239E4007
:100D840034E50875F007A42425F808E6FA08E6F91E
:100D9400120BABE50875F007A42428F8E6FE08E674
:100DA4002524FFE5233EFEE50875F007A4242AF870
:090DB400A60608A607050880AA9E
:010DBD002213
:100F8100C201D2917F0512105CC2917FC812105C20
:100F91007FC812105CD2917F3212105CA291920133
:070FA1007F1912105CA20190
:010FA8002226
:100F0700E4F50DF50E750D08C291E50EC313F50E48
:100F1700D291309103430E807F1912105C150DE5B5
:080F27000DD3940050E2AF0E5F
:010F2F00229F
:020EDD008F0D77
:100EDF00E4F50E750E08C291E50D1392917F19126C
:100EEF00105CD291E50DC313F50D150EE50ED394DD
:080EFF000050E37F1902105CB2
:100CFB00E4F508F509F50AF50BF50C120F81400226
:100D0B00804D7FCC120EDD7F44120EDD7F0A120F59
:100D1B00FC120F817FCC120EDD7FBE120EDD120F87
:100D2B00078F08120F077509008F0AE50A750A006D
:100D3B00F5097E00E50A2508F50CEE3509F50BC320
:100D4B009400400BD3E50C94E8E50B940340057E2F
:080D5B00FF7FFF22AE0BAF0C7D
:010D6300226D
:06104C00EF24FF92902248
:051052007F0102104CBB
:05105700E4FF02104C53
:0C0F74000A14C0F9A4B0999282F8809091
:100EA7008F088D09E50875F00A84FFE4FD120E131B
:100EB700E50875F00A84AFF07D01120E13E5097598
:100EC700F00A84FF7D02120E13E50975F00A84AF5C
:060ED700F07D03020E1382
:020E13008D0A46
:100E1500E50AB401047E7F80027EFFE50A14600EB8
:100E250014600F14601024037038C2B2800AC2B374
:100E35008006C2B48002C2B574142FF8E65EF58050
:100E45007F2D12105C7580FFE50A14600D14600D8E
:100E550014600D2403700BD2B222D2B322D2B42275
:020E6500D2B504
:010E67002268
:100F30007C007D3C120B488E088F097C007D0A12D4
:100F40000B487D02120E13AE08AF097C007D0A1219
:090F50000B48AF057D03020E13EE
:03105C00DFFE2292
:100FFC00AE07AF061EEF600C7FF512105C7FF5128A
:05100C00105C80EE22E3
:100FE6002001127F02120FFC200107B2007F0212BD
:060FF6000FFC3001FD229A
:07104500A2929201020FE6E6
:03105F00D2942206
:03106200C2942213
:100BB100C3E54C9548FDE49400FC120A7C8F0B8E32
:100BC1000A8D098C08AC4AE4120A81AB0BAA0AA966
:100BD10009A808120807120AB58F4AAC22E4120AC2
:100BE10081A804A905AA06AB07AF0BAE0AAD09ACF3
:100BF100081208038F138E128D118C10AF0BAE0AE1
:100C0100AD09AC08120AB58F22AC4AE4120A817B05
:100C1100CD7ACC79CC783D1208F8AB0BAA0AA90998
:100C2100A808120807C004C005C006C0077FCD7E12
:100C3100CC7D4C7C3DAB13AA12A911A8101208F867
:100C4100D003D002D001D0001208078F0F8E0E8D75
:100C51000D8C0CE4FFFEFDFCAB0FAA0EA90DA80C38
:0D0C61001209FE6005400302106212105FD0
:010C6E002263
:10080000020B21E86480F8E933E83360110460F0FA
:10081000ED33EC337009E8FCE9FDEAFEEBFF22045E
:1008200060DED3EB9FEA9EE99DE8C2E78CF0C2F759
:1008300095F0400CE8CCF8E9CDF9EACEFAEBCFFB25
:10084000120AEC85D0F05804700320D5B3E8047088
:10085000075002B2D5020B2B92D5EC0460F7E4CC22
:10086000C0E0C398F8603B94186008400DD0E0FBEE
:10087000020B03E4FBFAC9FC8028E830E406E4C973
:10088000FBE4CAFCE830E305E4C9CACBFCE8540742
:100890006010F8C3E913F9EA13FAEB13FBEC13FC4D
:1008A000D8F130F52FC3E49CFCEF9BFFEE9AFEEDF0
:1008B00099FDD0E0FBEF4E4D4C701222DB03020B92
:1008C00028EC2CFCEF33FFEE33FEED33FDED30E78B
:1008D000EB020B03EF2BFFEE3AFEED39FDD0E0FB10
:1008E00050130BBB0003020B2BED13FDEE13FEEFB9
:0808F00013FFEC13FC020B03E3
:1008F800EC4D6011E8497017ED33EC3304600DE4FA
:10090800FCFFFEFD22E933E8330470F8020B2112E4
:100918000AEC58046009E4CC2481500628500902E6
:100928000B2B284003020B28C0E0EB4A7044B98027
:1009380006D0E0FB020B17EF4E701CBD8008EBFFE2
:10094800EAFEE9FD80EBE98DF0A4FEE5F00209E19D
:10095800E9CDF9EAFEEBFFEF89F0A4FCE5F0CE89DA
:10096800F0A42EFFE435F0CD89F0A42DFEE435F097
:100978008067EF4E7005BD80D780C3EF8BF0A4ACC5
:10098800F0EE8BF0A42CFCE435F0F8EF8AF0A42C00
:10099800E5F038FCE433CB8DF0A42CFCE5F03BF813
:1009A800EE8AF0A42CFCE5F038F8E433CF89F0A403
:1009B8002CFCE5F038CF3400CE89F0A42FFFE5F009
:1009C8003EFEE433C98DF0A42EFEE5F039CD8AF061
:1009D800A42FFFE5F03EFEE43DFD33D0E0FB5007D9
:1009E8000BBB000F020B2BEC2CFCEF33FFEE33FE9E
:0609F800ED33FD020B03CC
:1009FE0074F8CC6480CCC86480C8F58204604FC3A0
:100A0E00EB9FF5F0EA9E42F0E99D42F0E89C45F03E
:100A1E00603C501DE5825FFFE582D313CB5BCBF4C8
:100A2E002B5582FB50280ABA002409B900200880F1
:100A3E001DE5825BFBE582D313CF5FCFF4C3132F8B
:100A4E005582FF50090EBE00050DBD00010CC3EB13
:100A5E009FF5F0EA9E42F0E99D42F0E89C45F06079
:090A6E0007CC4820E701B3EC229B
:100A770075F020800E75F010800575F0087D007EFA
:100A8700007F003392D530D503120B9DEC33401015
:100A9700EF33FFEE33FEED33FDEC33FCD5F0ED2203
:0E0AA700E5F0247EA2D513CC92E7CDCEFF223F
:100AB500EDD2E7CD33EC3392D524814006E4FFFE39
:100AC500FDFC22FCE4CFCECDCC24E0501174FF8098
:100AD500EDC3CC13CCCD13CDCE13CECF13CF047035
:070AE500F030D5DE020B9D8D
:100AEC00E9D2E7C933E833F892D5EDD2E7CD33EC50
:070AFC0033FC5002B2D522C9
:100B0300EC30E7100FBF000C0EBE00080DBD000453
:100B13000BEB6014A2D5EB13FCED92E7FD2274FFFF
:100B2300FCFDFEFF22E480F8A2D574FF13FC7D8058
:030B3300E480EF6C
:100C7B00021037E493A3F8E493A34003F68001F248
:100C8B0008DFF48029E493A3F85407240CC8C3337A
:100C9B00C4540F4420C8834004F456800146F6DF49
:100CAB00E4800B0102040810204080900F59E47E71
:100CBB00019360BCA3FF543F30E509541FFEE4933E
:100CCB00A360010ECF54C025E060A840B8E493A305
:100CDB00FAE493A3F8E493A3C8C582C8CAC583CA30
:100CEB00F0A3C8C582C8CAC583CADFE9DEE780BEE8
:010F80000070
:100B3600EF8DF0A4A8F0CF8CF0A428CE8DF0A42ED3
:020B4600FE228D
:100B4800BC000BBE0029EF8DF084FFADF022E4CC91
:100B5800F875F008EF2FFFEE33FEEC33FCEE9DEC5A
:100B6800984005FCEE9DFE0FD5F0E9E4CEFD22EDA0
:100B7800F8F5F0EE8420D21CFEADF075F008EF2FEA
:100B8800FFED33FD4007985006D5F0F222C398FDDB
:050B98000FD5F0EA2278
:0E0B9D00C3E49FFFE49EFEE49DFDE49CFC2269
:060BAB008A838982E473D5
:00000001FF
