:0300000002136B7D
:0C136B00787FE4F6D8FD75816F0213B2A4
:1017C70054656D70657261747572653A2025642E73
:0517D700256420430021
:10162D00024C0000012400044800000000012200CB
:0E163D00014F0001501C014E00012300C18925
:101804001216FE1217B112165812145312179B8097
:01181400F8DB
:101658001217F17BFF7A1379F77D0A7C00121503C4
:101668007BFF7A15794B7DE87C031215037BFF7AA3
:0A1678001579F97D027C00021503CC
:1017F1005389F0438901758CFC758A18D2AFD2A93F
:03180100D28C2264
:03000B00021815C3
:09181500758CFC758A180524325B
:10150300C3E54D9405E54C9400503CAF4DEF75F0A9
:1015130007A42425F8A60308A60208A601EF75F080
:1015230007A42428F8A60408A605E5242DFFE43C17
:10153300FEE54D75F007A4242AF8A60608A60705BC
:081543004DE54D7002054C223C
:1013F700121587AC06AD07E4120A7CE4FBFA798084
:10140700783D1208F88F4B8E4A8D498C48120AB5E1
:101417008F22AC22E4120A81A804A905AA06AB0709
:10142700AF4BAE4AAD49AC48120803E4FBFA79C8A2
:1014370078421208F8120AB58F4F300907AD4FAF3F
:0C144700220215C37F3C7E001216D52245
:10154B00E4FFFE7DD07C41AB4BAA4AA949A84812C7
:10155B0009FE5005121833801DE4FFFEFD7C42ABE3
:10156B004BAA4AA949A8481209FE60074005121860
:0C157B002C80031212DE7F1912183A2295
:1015F900E4FFFE7DE07C41AB4BAA4AA949A8481209
:1016090009FE500512181E8015E4FFFE7DF07C418D
:10161900AB4BAA4AA949A8481209FE1218257F19F5
:0416290012183A2237
:10145300E4F56DC3E56D954DE4954C504DE56D7523
:10146300F007A4242AF8E6FE08E6FFC3E5249FE478
:101473009E4033E56D75F007A42425F808E6FA08C5
:10148300E6F9120E69E56D75F007A42428F8E6FE67
:1014930008E62524FFE43EFEE56D75F007A4242A43
:0A14A300F8A60608A607056D80A94B
:0114AD00221C
:101775007554FF7555177556C7852257854F587B84
:10178500007A007908120ECB7B007A0079081217CF
:06179500267F1902183A3C
:1016FE00C20AD2917F0512183AC2917FC812183AC7
:10170E007FC812183AD2917F3212183AA291920AD9
:07171E007F1912183AA20A1C
:0117250022A1
:1016AC00E4F56EF56F756E08C291E56FC313F56FB7
:1016BC00D291309103436F807F1912183A156EE561
:0816CC006ED3940050E2AF6FF1
:0116D40022F3
:021682008F6E69
:10168400E4F56F756F08C291E56E1392917F19129C
:10169400183AD291E56EC313F56E156FE56FD394C6
:0816A4000050E37F1902183A1F
:10158700E4F56DFFFEFDFC1216FE7FCC1216827F7E
:10159700441216827F0A1217DC1216FE7FCC12162F
:1015A700827FBE1216821216AC8F6D1216ACEF7FB9
:0B15B70000FEEF256DFDE43EFEAF05D9
:0115C2002206
:07181E00D2A77F1902183A5E
:07182500C2A77F1902183A67
:0C164B000A12C0F9A4B0999282F88090B5
:1015C3008F6D8D6EE56D75F00A84FFE4FD1214AE28
:1015D300E56D75F00A84AFF07D011214AEE56E750A
:1015E300F00A84FF7D021214AEE56E75F00A84AF33
:0615F300F07D030214AEBE
:0214AE008D6F40
:1014B000E56FB401047E7F80027EFFE56F14600E4D
:1014C00014600F14601024037038C2B2800AC2B3D3
:1014D0008006C2B48002C2B574122FF8E65EF580B1
:1014E0007F1912183A7580FFE56F14600D14600DB6
:1014F00014600D2403700BD2B222D2B322D2B422D4
:02150000D2B562
:0115020022C6
:1016D5007C007D3C120DD08E6D8F6E7C007D0A12D4
:1016E5000DD07D021214AEAE6DAF6E7C007D0A1278
:0916F5000DD0AF057D030214AE17
:03183A00DFFE22AC
:1017DC00AE07AF061EEF600C7FF512183A7FF512BC
:0517EC00183A80EE2216
:10179B002092127F021217DC209207B2097F0212ED
:0617AB0017DC3092FD2264
:07182C00D2947F1902183A63
:07183300C2947F1902183A6C
:1012DE00AC50E4120A81AB4BAA4AA949A84812089D
:1012EE0003120AB58F6DE56D254EF54EC3E56D956E
:1012FE0023F56E856D23AC4EE4120A817BCD7ACC3C
:10130E0079CC783D1208F8C004C005C006C007AC01
:10131E006DEC120A81D003D002D001D00012080762
:10132E00C004C005C006C007AC6EEC120A817BCDAE
:10133E007ACC794C783D1208F8D003D002D001D087
:10134E0000120807120AB5D3EF648094804005128C
:0C135E001833800312182C7F1912183A63
:01136A002260
:1017B10075985053890F438920758D1C758B1CD2E8
:0617C1008ED2AFD2AC2273
:101726008B1C8A1D891EAB1CAA1DA91E120D786072
:1017360016051EE51E7002051D14F9120D78F599A1
:081746003099FDC29980DF22F9
:10080000020B21E86480F8E933E83360110460F0FA
:10081000ED33EC337009E8FCE9FDEAFEEBFF22045E
:1008200060DED3EB9FEA9EE99DE8C2E78CF0C2F759
:1008300095F0400CE8CCF8E9CDF9EACEFAEBCFFB25
:10084000120AEC85D0F05804700320D5B3E8047088
:10085000075002B2D5020B2B92D5EC0460F7E4CC22
:10086000C0E0C398F8603B94186008400DD0E0FBEE
:10087000020B03E4FBFAC9FC8028E830E406E4C973
:10088000FBE4CAFCE830E305E4C9CACBFCE8540742
:100890006010F8C3E913F9EA13FAEB13FBEC13FC4D
:1008A000D8F130F52FC3E49CFCEF9BFFEE9AFEEDF0
:1008B00099FDD0E0FBEF4E4D4C701222DB03020B92
:1008C00028EC2CFCEF33FFEE33FEED33FDED30E78B
:1008D000EB020B03EF2BFFEE3AFEED39FDD0E0FB10
:1008E00050130BBB0003020B2BED13FDEE13FEEFB9
:0808F00013FFEC13FC020B03E3
:1008F800EC4D6011E8497017ED33EC3304600DE4FA
:10090800FCFFFEFD22E933E8330470F8020B2112E4
:100918000AEC58046009E4CC2481500628500902E6
:100928000B2B284003020B28C0E0EB4A7044B98027
:1009380006D0E0FB020B17EF4E701CBD8008EBFFE2
:10094800EAFEE9FD80EBE98DF0A4FEE5F00209E19D
:10095800E9CDF9EAFEEBFFEF89F0A4FCE5F0CE89DA
:10096800F0A42EFFE435F0CD89F0A42DFEE435F097
:100978008067EF4E7005BD80D780C3EF8BF0A4ACC5
:10098800F0EE8BF0A42CFCE435F0F8EF8AF0A42C00
:10099800E5F038FCE433CB8DF0A42CFCE5F03BF813
:1009A800EE8AF0A42CFCE5F038F8E433CF89F0A403
:1009B8002CFCE5F038CF3400CE89F0A42FFFE5F009
:1009C8003EFEE433C98DF0A42EFEE5F039CD8AF061
:1009D800A42FFFE5F03EFEE43DFD33D0E0FB5007D9
:1009E8000BBB000F020B2BEC2CFCEF33FFEE33FE9E
:0609F800ED33FD020B03CC
:1009FE0074F8CC6480CCC86480C8F58204604FC3A0
:100A0E00EB9FF5F0EA9E42F0E99D42F0E89C45F03E
:100A1E00603C501DE5825FFFE582D313CB5BCBF4C8
:100A2E002B5582FB50280ABA002409B900200880F1
:100A3E001DE5825BFBE582D313CF5FCFF4C3132F8B
:100A4E005582FF50090EBE00050DBD00010CC3EB13
:100A5E009FF5F0EA9E42F0E99D42F0E89C45F06079
:090A6E0007CC4820E701B3EC229B
:100A770075F020800E75F010800575F0087D007EFA
:100A8700007F003392D530D503120E25EC3340108A
:100A9700EF33FFEE33FEED33FDEC33FCD5F0ED2203
:0E0AA700E5F0247EA2D513CC92E7CDCEFF223F
:100AB500EDD2E7CD33EC3392D524814006E4FFFE39
:100AC500FDFC22FCE4CFCECDCC24E0501174FF8098
:100AD500EDC3CC13CCCD13CDCE13CECF13CF047035
:070AE500F030D5DE020E2502
:100E6F00E5682454F8E60568227851300702785473
:100E7F00E475F001120E33020D782000EB7F2ED2B5
:100E8F00008018EF540F2490D43440D4FF30040B5B
:100E9F00EF24BFB41A0050032461FFE56960021507
:100EAF0069056CE56C7002056B30070D7851E475C0
:100EBF00F001120E33EF020DBE02174E7403D2076C
:100ECF008003E4C207F5688B518A528953E4F569B0
:100EDF00F56BF56CE56960077F20120EAA80F5753A
:100EEF006AFFC201C200C202C203C205C206C20823
:100EFF00120E78FF700D3007057F00120EBBAF6C1E
:100F0F00AE6B22B4255FC2D5C204120E78FF24D077
:100F1F00B40A00501A75F00A786930D50508B6FF83
:100F2F000106C6A426F620D5047002D20380D92468
:100F3F00CFB41A00EF5004C2E5D2040211A8D201B7
:100F4F0080C6D20080C0D20280BCD2D580BAD20572
:100F5F0080B47F20120EAA2002077401B5690040E9
:100F6F00F1120E6FFF120EAA020EE3D208D2068004
:100F7F0095120E6FFB120E6FFA120E6FF94A4B702D
:100F8F0006799F7A127BFF20022EE569602A7E0088
:100F9F008E82758300120D9160060EEE656A70F0F9
:100FAF00C2D5EBC0E0EAC0E0E9C0E0EE121208D013
:100FBF00E0F9D0E0FAD0E0FB120D78FF60AAEBC0A9
:100FCF00E0EAC0E0E9C0E0120EAAD0E02401F9D0B7
:100FDF00E03400FAD0E0FBE56A0460DCD56AD98022
:100FEF0087D20280A21211EB60F7E56A700104123A
:100FFF000B36A96A600DE56A600914F56A12129240
:10100F00EF60F3EA30E702F404C3995077EAF4256E
:10101F006A0430E701E404F56A800D1211EB60C138
:10102F00EA056A256A120B36EA7867F630E701E4BB
:10103F00256A04D56A0420050114121208E4C0E0E1
:10104F001212927867E6601320E70714F6120E92D9
:10105F00802204F6D0E014C0E07F00120E92E56A01
:10106F006007120E89156A800B300503120E89D0A6
:10107F00E0020EE3D0E00480C51211EB60A0E56A38
:10108F0004120B367867EAF6E56A20050260010460
:05109F002404121208F8
:1010A40074FF04C0E0121292120E92E56A20050247
:1010B4006003120E89D0E0B56AE87F45120E9C7871
:1010C40067E67F2B30E7047F2DF404C0E0120EAAFC
:1010D400D0E075F00A84C0F0120E93D0E0120E93A3
:1010E400020EE3791080027908C206C2088008D291
:1010F400D5790A8004790AC2D5E56A047002F56AD2
:10110400E4FAFDFEFF120E6FFC7B08200113120EA1
:101114006FFD7B1030000A120E6FFE120E6FFF7B04
:1011240020EC3382D592D55013C3E43000069FFFE0
:10113400E49EFEE42001039DFDE49CFCE4CBF8C2A4
:1011440001EC700CCFCECDCCE824F8F870F3801706
:10115400C3EF33FFEE33FEED33FDEC33FCEB33FB37
:10116400994002FB0FD8E9EB300105F8D0E0C44800
:10117400B201C0E00AEC4D4E4F78207B0070C2EA09
:10118400B56A0040BCC0E012120AD0F0D0E02001E1
:1011940004C4C0E0C4B201C0F0120E93D0F0D5F084
:1011A400EB020EE3120E430F805310E7580F514C1D
:1011B4000F4D4210EB4F10F34410F3490F664310E8
:1011C400F955102A461088450FF44712BF500F55A1
:1011D4002D0F592E0F7C2B0F5D230F7A2012A82A76
:1011E4000F154800000F74E56AB4FF03756A061210
:1011F4000E6FFC120E6FFD120E6FFE120E6FFF7853
:1012040060020B65790AA2D5200314300509B910D0
:10121400020404B9080104A2D520060250010420E6
:1012240002689202B569005034C0E07F203003198F
:101234007F30A20272067205500F121261C202C2FE
:1012440006C205C2087F30800F300503E9C0E012F2
:101254000EAA300503D0E0F9D0E0B569CC3005170B
:101264007F30B9100C120EAA7F583004077F7880A3
:1012740003B90803120EAA3002057F2D020EAA7FBD
:10128400202008F87F2B2006F322920280CF7F00D3
:10129400B4070050052460F8E6FF22286E756C6CD4
:1012A4002900D201120E6F3001F8C201786930D5DD
:1012B4000108F6020F152D50434958120E6F2403EE
:1012C400B405004001E49012BA93120E9B743A12D2
:0A12D4000E9BD2037569040210E7B7
:100AEC00E9D2E7C933E833F892D5EDD2E7CD33EC50
:070AFC0033FC5002B2D522C9
:100B0300EC30E7100FBF000C0EBE00080DBD000453
:100B13000BEB6014A2D5EB13FCED92E7FD2274FFFF
:100B2300FCFDFEFF22E480F8A2D574FF13FC7D8058
:030B3300E480EF6C
:100B3600F920E72824F950037907E4F42402FB1886
:100B4600DBFDE624FB5014E9600DE4F618E604F636
:0F0B5600B40A08E4F6D9F57401F60A22C2D522D2
:100B6500ED33EC3392D5FA602AB4FF33EDC2E77B5F
:100B7500FF60067A0B798AE4227A0B799320D504F3
:100B85007A0B798E224E614E002B494E46002D4937
:100B95004E4600E47A08F608DAFC7B00740722E882
:100BA500C0E0ECC0E0EDC0E0EEC0E0EFC0E0EA750B
:100BB500F010A4CAABF075F04DA42BFBE435F0FCA6
:100BC500EA2410FAEB34C5FBEC34D9FCEDC2E7FF9F
:100BD50075F056A4F42411C5F0F434C58FF0A42A99
:100BE500E5F03BE43CF620E714120D38D0E0FFD0E9
:100BF500E0FED0E0FDD0E0FC120C6B8014F4041292
:100C05000D38D0E0FFD0E0FED0E0FDD0E0FC1208CA
:100C1500F8D0E0F8E6FAEDD2E7CD33EC332482FBE9
:100C2500E4C3CF33CFCE33CECD33CD33DBF37B0728
:100C350075F00A846004F6081B0AE5F0F6088FF0E3
:100C4500740AA4FFACF08EF0740AA42CFEACF0502C
:100C5500010C8DF0740AA42CFDE435F0F608DBDEFA
:030C6500740722EF
:100C6800020B2BEC5D046005E859047003020B21AC
:100C7800120AEC580460F6EC4860F2EC7004FDFED1
:100C8800FF22C860DB2481C85009C398600250065F
:100C9800020B289850CAF582E9294B4A7005AB82A5
:100CA800020B1775F0007C1A7880C3EF9BEE9AED63
:100CB80099400DC3EF9BFFEE9AFEED99FDE842F0D7
:100CC800DC23ACF0D0E0FFD0E0FED0E0FDAB82202A
:100CD800E7101BEB60BAEC2CFCEF33FFEE33FEEDB4
:100CE80033FD020B03E803F830E705C0F075F000A8
:100CF800EF2FFFEE33FEED33FD40B830E7C280AA98
:100D08003F8000004120000042C80000447A0000F3
:100D1800461C400047C35000497424004B18968075
:100D28004CBEBC205A0E1BCA6753C21C749DC5AE6C
:100D3800FB60065407601C2323120D66EB543860D1
:100D480009120D52120D611208F8ECF8EDF9EEFADD
:100D5800EFCB22EB120D6180F1543803241C900D67
:100D680008FE93FC0EEE93FD0EEE930ECE93FF223B
:10137700021804E493A3F8E493A34003F68001F270
:1013870008DFF48029E493A3F85407240CC8C33377
:10139700C4540F4420C8834004F456800146F6DF46
:1013A700E4800B010204081020408090162DE47E93
:1013B700019360BCA3FF543F30E509541FFEE4933B
:1013C700A360010ECF54C025E060A840B8E493A302
:1013D700FAE493A3F8E493A3C8C582C8CAC583CA2D
:1013E700F0A3C8C582C8CAC583CADFE9DEE780BEE5
:011657000092
:100D7800BB010689828A83E0225002E722BBFE0279
:090D8800E32289828A83E49322AC
:100D9100BB010CE58229F582E5833AF583E0225017
:100DA10006E92582F8E622BBFE06E92582F8E22261
:0D0DB100E58229F582E5833AF583E493227B
:100DBE00BB010689828A83F0225002F722BBFE0114
:020DCE00F3220E
:100DD000BC000BBE0029EF8DF084FFADF022E4CC07
:100DE000F875F008EF2FFFEE33FEEC33FCEE9DECD0
:100DF000984005FCEE9DFE0FD5F0E9E4CEFD22ED16
:100E0000F8F5F0EE8420D21CFEADF075F008EF2F5F
:100E1000FFED33FD4007985006D5F0F222C398FD50
:050E20000FD5F0EA22ED
:0E0E2500C3E49FFFE49EFEE49DFDE49CFC22DE
:100E3300FAE6FB0808E6F925F0F618E6CA3AF622C0
:100E4300D083D082F8E4937012740193700DA3A33E
:100E530093F8740193F5828883E473740293686052
:060E6300EFA3A3A380DF52
:060E69008A838982E47314
:10174E00EFB40A07740D121759740A309811A8993C
:10175E00B8130CC2983098FDA899C298B811F630FB
:07176E0099FDC299F59922D3
:00000001FF
