:03000000020C5D92
:0C0C5D00787FE4F6D8FD75814C020CA4F1
:100F450001490002230000014800012100014B0076
:0B0F5500014C1C014A00012200C18079
:0E102300120F6D120FB5121031120D5280F81F
:100FB500120FFD7BFF7A0E79017D087C00120E541D
:0D0FC5007BFF7A0F79957DE87C03020E54C6
:100FFD005389F0438901758CFC758A18D2AFD2A93B
:03100D00D28C2260
:03000B00021010D0
:10101000C0E0758CFC758A180524E5247002052350
:03102000D0E032EB
:100E5400E549C394055037E54975F007A42425F8FE
:100E6400A60308A60208A601E54975F007A42428EC
:100E7400F8A60408A605E5242DFFE5233CFEE54974
:0F0E840075F007A4242AF8A60608A60705492238
:100E0100120CE9AC06AD07E4120A7CE4FBFA798026
:100E1100783D1208F8120AB58F488F21C3E548952D
:100E210021FDE49400FC120A7CE4FBFAF9783F12FC
:100E31000807E4FBFA79C878421208F8120AB58F5C
:100E41004B300007AD4BAF21020E937F3C7E001269
:030E51000F1C2251
:100F9500E548C39419500512104E800AE548D394CC
:100FA5001E400612104B02103E120B9F12104322D8
:100D5200E4F508E508C39549504FE50875F007A486
:100D6200242AF8E6FE08E6FFC3E5249FE5239E4019
:100D720034E50875F007A42425F808E6FA08E6F930
:100D8200120B99E50875F007A42428F8E6FE08E698
:100D92002524FFE5233EFEE50875F007A4242AF882
:090DA200A60608A607050880AAB0
:010DAB002225
:100F6D00C201D2917F05121048C2917FC81210485C
:100F7D007FC8121048D2917F32121048A29192016F
:070F8D007F19121048A201B8
:010F9400223A
:100EF300E4F50DF50E750D08C291E50EC313F50E5D
:100F0300D291309103430E807F19121048150DE5DD
:080F13000DD3940050E2AF0E73
:010F1B0022B3
:020EC9008F0D8B
:100ECB00E4F50E750E08C291E50D1392917F191280
:100EDB001048D291E50DC313F50D150EE50ED39405
:080EEB000050E37F19021048DA
:100CE900E4F508F509F50AF50BF50C120F6D40024C
:100CF900804D7FCC120EC97F44120EC97F0A120F94
:100D0900E8120F6D7FCC120EC97FBE120EC9120EEA
:100D1900F38F08120EF37509008F0AE50A750A00A8
:100D2900F5097E00E50A2508F50CEE3509F50BC332
:100D39009400400BD3E50C94E8E50B940340057E41
:080D4900FF7FFF22AE0BAF0C8F
:010D5100227F
:06103800EF24FF9290225C
:05103E007F01021038E3
:05104300E4FF0210387B
:0C0F60000A14C0F9A4B0999282F88090A5
:100E93008F088D09E50875F00A84FFE4FD120DAC97
:100EA300E50875F00A84AFF07D01120DACE5097514
:100EB300F00A84FF7D02120DACE50975F00A84AFD8
:060EC300F07D03020DACFE
:020DAC008D0AAE
:100DAE00E50AB401047E7F80027EFFE50A14600E20
:100DBE0014600F14601024037038C2B2800AC2B3DC
:100DCE008006C2B48002C2B574142FF8E65EF580B8
:100DDE007F2D1210487580FFE50A14600D14600D0A
:100DEE0014600D2403700BD2B222D2B322D2B422DD
:020DFE00D2B56C
:010E000022CF
:100F1C007C007D3C120B368E088F097C007D0A12FA
:100F2C000B367D02120DACAE08AF097C007D0A12A7
:090F3C000B36AF057D03020DAC7C
:03104800DFFE22A6
:100FE800AE07AF061EEF600C7FF51210487FF512B2
:050FF800104880EE220C
:100FD2002001127F02120FE8200107B2007F0212E5
:060FE2000FE83001FD22C2
:07103100A2929201020FD20E
:03104B00D294221A
:03104E00C2942227
:100B9F00C3E54C9548FDE49400FC120A7C8F0B8E44
:100BAF000A8D098C08AC4AE4120A81AB0BAA0AA978
:100BBF0009A808120807120AB58F4AAC22E4120AD4
:100BCF0081A804A905AA06AB07AF0BAE0AAD09AC05
:100BDF00081208038F138E128D118C10AF0BAE0AF3
:100BEF00AD09AC08120AB58F22AC4AE4120A817B18
:100BFF00CD7ACC79CC783D1208F8AB0BAA0AA909AB
:100C0F00A808120807C004C005C006C0077FCD7E24
:100C1F00CC7D4C7C3DAB13AA12A911A8101208F879
:100C2F00D003D002D001D0001208078F0F8E0E8D87
:100C3F000D8C0CE4FFFEFDFCAB0FAA0EA90DA80C4A
:0D0C4F001209FE6005400302104E12104B0A
:010C5C002275
:10080000020B21E86480F8E933E83360110460F0FA
:10081000ED33EC337009E8FCE9FDEAFEEBFF22045E
:1008200060DED3EB9FEA9EE99DE8C2E78CF0C2F759
:1008300095F0400CE8CCF8E9CDF9EACEFAEBCFFB25
:10084000120AEC85D0F05804700320D5B3E8047088
:10085000075002B2D5020B2B92D5EC0460F7E4CC22
:10086000C0E0C398F8603B94186008400DD0E0FBEE
:10087000020B03E4FBFAC9FC8028E830E406E4C973
:10088000FBE4CAFCE830E305E4C9CACBFCE8540742
:100890006010F8C3E913F9EA13FAEB13FBEC13FC4D
:1008A000D8F130F52FC3E49CFCEF9BFFEE9AFEEDF0
:1008B00099FDD0E0FBEF4E4D4C701222DB03020B92
:1008C00028EC2CFCEF33FFEE33FEED33FDED30E78B
:1008D000EB020B03EF2BFFEE3AFEED39FDD0E0FB10
:1008E00050130BBB0003020B2BED13FDEE13FEEFB9
:0808F00013FFEC13FC020B03E3
:1008F800EC4D6011E8497017ED33EC3304600DE4FA
:10090800FCFFFEFD22E933E8330470F8020B2112E4
:100918000AEC58046009E4CC2481500628500902E6
:100928000B2B284003020B28C0E0EB4A7044B98027
:1009380006D0E0FB020B17EF4E701CBD8008EBFFE2
:10094800EAFEE9FD80EBE98DF0A4FEE5F00209E19D
:10095800E9CDF9EAFEEBFFEF89F0A4FCE5F0CE89DA
:10096800F0A42EFFE435F0CD89F0A42DFEE435F097
:100978008067EF4E7005BD80D780C3EF8BF0A4ACC5
:10098800F0EE8BF0A42CFCE435F0F8EF8AF0A42C00
:10099800E5F038FCE433CB8DF0A42CFCE5F03BF813
:1009A800EE8AF0A42CFCE5F038F8E433CF89F0A403
:1009B8002CFCE5F038CF3400CE89F0A42FFFE5F009
:1009C8003EFEE433C98DF0A42EFEE5F039CD8AF061
:1009D800A42FFFE5F03EFEE43DFD33D0E0FB5007D9
:1009E8000BBB000F020B2BEC2CFCEF33FFEE33FE9E
:0609F800ED33FD020B03CC
:1009FE0074F8CC6480CCC86480C8F58204604FC3A0
:100A0E00EB9FF5F0EA9E42F0E99D42F0E89C45F03E
:100A1E00603C501DE5825FFFE582D313CB5BCBF4C8
:100A2E002B5582FB50280ABA002409B900200880F1
:100A3E001DE5825BFBE582D313CF5FCFF4C3132F8B
:100A4E005582FF50090EBE00050DBD00010CC3EB13
:100A5E009FF5F0EA9E42F0E99D42F0E89C45F06079
:090A6E0007CC4820E701B3EC229B
:100A770075F020800E75F010800575F0087D007EFA
:100A8700007F003392D530D503120B8BEC33401027
:100A9700EF33FFEE33FEED33FDEC33FCD5F0ED2203
:0E0AA700E5F0247EA2D513CC92E7CDCEFF223F
:100AB500EDD2E7CD33EC3392D524814006E4FFFE39
:100AC500FDFC22FCE4CFCECDCC24E0501174FF8098
:100AD500EDC3CC13CCCD13CDCE13CECF13CF047035
:070AE500F030D5DE020B8B9F
:100AEC00E9D2E7C933E833F892D5EDD2E7CD33EC50
:070AFC0033FC5002B2D522C9
:100B0300EC30E7100FBF000C0EBE00080DBD000453
:100B13000BEB6014A2D5EB13FCED92E7FD2274FFFF
:100B2300FCFDFEFF22E480F8A2D574FF13FC7D8058
:030B3300E480EF6C
:100C6900021023E493A3F8E493A34003F68001F26E
:100C790008DFF48029E493A3F85407240CC8C3338C
:100C8900C4540F4420C8834004F456800146F6DF5B
:100C9900E4800B0102040810204080900F45E47E97
:100CA900019360BCA3FF543F30E509541FFEE49350
:100CB900A360010ECF54C025E060A840B8E493A317
:100CC900FAE493A3F8E493A3C8C582C8CAC583CA42
:100CD900F0A3C8C582C8CAC583CADFE9DEE780BEFA
:010F6C000084
:100B3600BC000BBE0029EF8DF084FFADF022E4CCA3
:100B4600F875F008EF2FFFEE33FEEC33FCEE9DEC6C
:100B5600984005FCEE9DFE0FD5F0E9E4CEFD22EDB2
:100B6600F8F5F0EE8420D21CFEADF075F008EF2FFC
:100B7600FFED33FD4007985006D5F0F222C398FDED
:050B86000FD5F0EA228A
:0E0B8B00C3E49FFFE49EFEE49DFDE49CFC227B
:060B99008A838982E473E7
:00000001FF
