:0300000002127772
:0C127700787FE4F6D8FD75817D0212BE80
:1016AA0054656D70657261747572653A2025642E91
:0616BA00253032640A0035
:10158200017A0002540000017900015200017C003E
:0B159200017D1C017B00015300C1899A
:101727001216461216D612152F1217381213788072
:01173700F8B9
:10152F001217017BFF7A1379D27D087C0012147C8D
:10153F007BFF7A16798A7DE87C0312147C7BFF7A15
:0A154F001679697DF47C0102147C1A
:101701005389F0438901758CFC758A18D2AFD2A92F
:03171100D28C2255
:03000B00021714C5
:10171400C0E0758CFC758A180555E55570020554B2
:03172400D0E032E0
:10147C00E57AC394055037E57A75F007A42456F83D
:10148C00A60308A60208A601E57A75F007A424595C
:10149C00F8A60408A605E5552DFFE5543CFEE57AB3
:0F14AC0075F007A4245BF8A60608A607057A22A8
:1013D2001214BBAC06AD07E4120A03E4FBFA7980EF
:1013E200783D1208F8120A3C8F798F52C3E579953D
:1013F20052FFE49400FE7C007D64120D57AC06ADF2
:1014020007EC120A03E4FBFAF9783F120807120A02
:101412003C8F7C300907AD7CAF520214F97F3C7ED1
:05142200001215592223
:10168A00E579C394195005121755800AE579D39460
:10169A001E400612175202174512130312174A2246
:10137800E4F522E522C3957A504FE52275F007A4DB
:10138800245BF8E6FE08E6FFC3E5559FE5549E405A
:1013980034E52275F007A42456F808E6FA08E6F9B9
:1013A800120E02E52275F007A42459F8E6FE08E6B5
:1013B8002555FFE5543EFEE52275F007A4245BF8A9
:0913C800A60608A607052280AA6A
:0113D10022F9
:101669007539FF753A16753BAA85523C857C3D7BD9
:10167900007A007922120E647B007A007922021521
:01168900AAB6
:10164600C200D2917F0512174FC2917F9012174F99
:10165600D2917F3212174FA29192007F1912174F23
:02166600A200E0
:01166800225F
:10162000E4F524F523C291E524C313F524D29130C7
:1016300091034324807F1912174F0523E523C39498
:051640000840E2AF24A8
:011645002282
:0215D2008F2365
:1015D400E4F524C291E5231392917F1912174FD297
:1015E40091E523C313F5230524E524C3940840E3BC
:0515F4007F1902174FF2
:1014BB00121646400280317FCC1215D27F44121592
:1014CB00D27F0A1216EC1216467FCC1215D27FBEB3
:1014DB001215D21216208F22121620EFFEE522FFD4
:0D14EB00D394E8EE940340057EFF7FFF22BE
:0114F80022D1
:06173F00EF24FF9290224E
:051745007F0102173FC7
:05174A00E4FF02173F5F
:0C159D000A08C0F9A4B0999282F880906E
:1014F9008F228D23E52275F00A84FFE4FD1214275B
:10150900E52275F00A84AFF07D01121427E52375F1
:10151900F00A84FF7D02121427E52375F00A84AFCF
:06152900F07D030214270F
:021427008D2412
:10142900E524B401047E7F80027EFFE52414600E6A
:1014390014600F14601024037038C2B2800AC2B35A
:101449008006C2B48002C2B574082FF8E65EF58042
:101459007F2D12174F7580FFE52414600D14600D60
:1014690014600D2403700BD2B222D2B322D2B4225B
:02147900D2B5EA
:01147B00224E
:101559007C007D3C120D698E228F237C007D0A124E
:101569000D697D02121427AE22AF237C007D0A1279
:091579000D69AF057D0302142782
:03174F00DFFE2298
:1016EC00AE07AF061EEF600C7FF512174F7FF51299
:0516FC00174F80EE22F3
:1016C0002000127F021216EC200007B2097F0212DE
:0616D00016EC3000FD22C3
:07173800A29292000216C00C
:03175200D294220C
:03175500C2942219
:10130300C3E57D9579F522257BF57BC3E5229553CE
:10131300F523852253AC7BE4120A087BCD7ACC7982
:10132300CC783D1208F8C004C005C006C007AC2243
:10133300EC120A08D003D002D001D000120807C073
:1013430004C005C006C007AC23EC120A087BCD7AA3
:10135300CC794C783D1208F8D003D002D001D000EC
:10136300120807120A3CD3EF6480948040030217EB
:0413730055121752A6
:011377002253
:1016D60075985053890F438920758D1C758B1CD2C4
:0616E6008ED2AFD2AC224F
:1015AA008B368A378938AB36AA37A938120CFF60CE
:1015BA00160538E5387002053714F9120CFFF5994B
:0815CA003099FDC29980DF2277
:10080000020AA8E86480F8E933E83360110460F074
:10081000ED33EC337009E8FCE9FDEAFEEBFF22045E
:1008200060DED3EB9FEA9EE99DE8C2E78CF0C2F759
:1008300095F0400CE8CCF8E9CDF9EACEFAEBCFFB25
:10084000120A7385D0F05804700320D5B3E8047001
:10085000075002B2D5020AB292D5EC0460F7E4CC9C
:10086000C0E0C398F8603B94186008400DD0E0FBEE
:10087000020A8AE4FBFAC9FC8028E830E406E4C9ED
:10088000FBE4CAFCE830E305E4C9CACBFCE8540742
:100890006010F8C3E913F9EA13FAEB13FBEC13FC4D
:1008A000D8F130F52FC3E49CFCEF9BFFEE9AFEEDF0
:1008B00099FDD0E0FBEF4E4D4C701222DB03020A93
:1008C000AFEC2CFCEF33FFEE33FEED33FDED30E704
:1008D000EB020A8AEF2BFFEE3AFEED39FDD0E0FB8A
:1008E00050130BBB0003020AB2ED13FDEE13FEEF33
:0808F00013FFEC13FC020A8A5D
:1008F800EC4D6011E8497017ED33EC3304600DE4FA
:10090800FCFFFEFD22E933E8330470F8020AA8125E
:100918000A7358046009E4CC24815006285009025F
:100928000AB2284003020AAFC0E0EB4A7044B9801B
:1009380006D0E0FB020A9EEF4E701CBD8008EBFF5C
:10094800EAFEE9FD80EBE98DF0A4FEE5F00209E19D
:10095800E9CDF9EAFEEBFFEF89F0A4FCE5F0CE89DA
:10096800F0A42EFFE435F0CD89F0A42DFEE435F097
:100978008067EF4E7005BD80D780C3EF8BF0A4ACC5
:10098800F0EE8BF0A42CFCE435F0F8EF8AF0A42C00
:10099800E5F038FCE433CB8DF0A42CFCE5F03BF813
:1009A800EE8AF0A42CFCE5F038F8E433CF89F0A403
:1009B8002CFCE5F038CF3400CE89F0A42FFFE5F009
:1009C8003EFEE433C98DF0A42EFEE5F039CD8AF061
:1009D800A42FFFE5F03EFEE43DFD33D0E0FB5007D9
:1009E8000BBB000F020AB2EC2CFCEF33FFEE33FE18
:0609F800ED33FD020A8A46
:1009FE0075F020800E75F010800575F0087D007E74
:100A0E00007F003392D530D503120DBEEC3340106B
:100A1E00EF33FFEE33FEED33FDEC33FCD5F0ED227C
:0E0A2E00E5F0247EA2D513CC92E7CDCEFF22B8
:100A3C00EDD2E7CD33EC3392D524814006E4FFFEB2
:100A4C00FDFC22FCE4CFCECDCC24E0501174FF8011
:100A5C00EDC3CC13CCCD13CDCE13CECF13CF0470AE
:070A6C00F030D5DE020DBEE3
:100E0800E54D2439F8E6054D227836300702783961
:100E1800E475F001120DCC020CFF2000EB7F2ED2FE
:100E2800008018EF540F2490D43440D4FF30040BC2
:100E3800EF24BFB41A0050032461FFE54E60021589
:100E48004E0551E5517002055030070D7836E475AE
:100E5800F001120DCCEF020D450215F97403D2070B
:100E68008003E4C207F54D8B368A378938E4F54E9E
:100E7800F550F551E54E60077F20120E4380F57559
:100E88004FFFC201C200C202C203C205C206C208A5
:100E9800120E11FF700D3007057F00120E54AF516E
:100EA800AE5022B4255FC2D5C204120E11FF24D061
:100EB800B40A00501A75F00A784E30D50508B6FF06
:100EC8000106C6A426F620D5047002D20380D924D0
:100ED800CFB41A00EF5004C2E5D204021141D20186
:100EE80080C6D20080C0D20280BCD2D580BAD205DA
:100EF80080B47F20120E432002077401B54E0040D3
:100F0800F1120E08FF120E43020E7CD208D20680A0
:100F180095120E08FB120E08FA120E08F94A4B70C9
:100F28000679387A127BFF20022EE54E602A7E0071
:100F38008E82758300120D1860060EEE654F70F0F4
:100F4800C2D5EBC0E0EAC0E0E9C0E0EE1211A1D0E2
:100F5800E0F9D0E0FAD0E0FB120CFFFF60AAEBC08A
:100F6800E0EAC0E0E9C0E0120E43D0E02401F9D085
:100F7800E03400FAD0E0FBE54F0460DCD54FD980BF
:100F880087D20280A212118460F7E54F7001041223
:100F98000ABDA94F600DE54F600914F54F12122BD9
:100FA800EF60F3EA30E702F404C3995077EAF425D6
:100FB8004F0430E701E404F54F800D12118460C13D
:100FC800EA054F254F120ABDEA784CF630E701E4EE
:100FD800254F04D54F04200501141211A1E4C0E0E7
:100FE80012122B784CE6601320E70714F6120E2B2A
:100FF800802204F6D0E014C0E07F00120E2BE54FEB
:101008006007120E22154F800B300503120E22D0F6
:10101800E0020E7CD0E00480C512118460A0E54F88
:1010280004120ABD784CEAF6E54F20050260010477
:0510380024041211A1C7
:10103D0074FF04C0E012122B120E2BE54F20050297
:10104D006003120E22D0E0B54FE87F45120E3578C1
:10105D004CE67F2B30E7047F2DF404C0E0120E43E5
:10106D00D0E075F00A84C0F0120E2CD0E0120E2CD8
:10107D00020E7C791080027908C206C2088008D25F
:10108D00D5790A8004790AC2D5E54F047002F54F6F
:10109D00E4FAFDFEFF120E08FC7B08200113120E70
:1010AD0008FD7B1030000A120E08FE120E08FF7BA1
:1010BD0020EC3382D592D55013C3E43000069FFF48
:1010CD00E49EFEE42001039DFDE49CFCE4CBF8C20C
:1010DD0001EC700CCFCECDCCE824F8F870F380176E
:1010ED00C3EF33FFEE33FEED33FDEC33FCEB33FB9F
:1010FD00994002FB0FD8E9EB300105F8D0E0C44868
:10110D00B201C0E00AEC4D4E4F78207B0070C2EA70
:10111D00B54F0040BCC0E01211A3D0F0D0E02001CB
:10112D0004C4C0E0C4B201C0F0120E2CD0F0D5F052
:10113D00EB020E7C120DDC0F19531080580EEA4C89
:10114D000EE64210844F108C44108C490EFF431054
:10115D0092550FC3461021450F8D471258500EEE74
:10116D002D0EF22E0F152B0EF6230F132012412AE2
:10117D000EAE4800000F0DE54FB4FF03754F06127C
:10118D000E08FC120E08FD120E08FE120E08FF7856
:10119D0045020AEC790AA2D5200314300509B910CD
:1011AD00020404B9080104A2D5200602500104204E
:1011BD0002689202B54E005034C0E07F2030031912
:1011CD007F30A20272067205500F1211FAC202C2CE
:1011DD0006C205C2087F30800F300503E9C0E0125A
:1011ED000E43300503D0E0F9D0E0B54ECC300517F5
:1011FD007F30B9100C120E437F583004077F788072
:10120D0003B90803120E433002057F2D020E437FF2
:10121D00202008F87F2B2006F322920280CF7F003A
:10122D00B4070050052445F8E6FF22286E756C6C56
:10123D002900D201120E083001F8C201784E30D5C6
:10124D000108F6020EAE2D50434958120E08240324
:10125D00B405004001E490125393120E34743A1207
:0A126D000E34D203754E0402108007
:100A7300E9D2E7C933E833F892D5EDD2E7CD33ECC9
:070A830033FC5002B2D52242
:100A8A00EC30E7100FBF000C0EBE00080DBD0004CD
:100A9A000BEB6014A2D5EB13FCED92E7FD2274FF79
:100AAA00FCFDFEFF22E480F8A2D574FF13FC7D80D2
:030ABA00E480EFE6
:100ABD00F920E72824F950037907E4F42402FB1800
:100ACD00DBFDE624FB5014E9600DE4F618E604F6B0
:0F0ADD00B40A08E4F6D9F57401F60A22C2D5224C
:100AEC00ED33EC3392D5FA602AB4FF33EDC2E77BD9
:100AFC00FF60067A0B7911E4227A0B791A20D5045F
:100B0C007A0B7915224E614E002B494E46002D4929
:100B1C004E4600E47A08F608DAFC7B00740722E8FB
:100B2C00C0E0ECC0E0EDC0E0EEC0E0EFC0E0EA7584
:100B3C00F010A4CAABF075F04DA42BFBE435F0FC1F
:100B4C00EA2410FAEB34C5FBEC34D9FCEDC2E7FF18
:100B5C0075F056A4F42411C5F0F434C58FF0A42A12
:100B6C00E5F03BE43CF620E714120CBFD0E0FFD0DC
:100B7C00E0FED0E0FDD0E0FC120BF28014F4041285
:100B8C000CBFD0E0FFD0E0FED0E0FDD0E0FC1208BE
:100B9C00F8D0E0F8E6FAEDD2E7CD33EC332482FB63
:100BAC00E4C3CF33CFCE33CECD33CD33DBF37B07A2
:100BBC0075F00A846004F6081B0AE5F0F6088FF05D
:100BCC00740AA4FFACF08EF0740AA42CFEACF050A6
:100BDC00010C8DF0740AA42CFDE435F0F608DBDE74
:030BEC0074072269
:100BEF00020AB2EC5D046005E859047003020AA81A
:100BFF00120A73580460F6EC4860F2EC7004FDFEC4
:100C0F00FF22C860DB2481C85009C39860025006D8
:100C1F00020AAF9850CAF582E9294B4A7005AB8298
:100C2F00020A9E75F0007C1A7880C3EF9BEE9AED56
:100C3F0099400DC3EF9BFFEE9AFEED99FDE842F050
:100C4F00DC23ACF0D0E0FFD0E0FED0E0FDAB8220A3
:100C5F00E7101BEB60BAEC2CFCEF33FFEE33FEED2D
:100C6F0033FD020A8AE803F830E705C0F075F0009B
:100C7F00EF2FFFEE33FEED33FD40B830E7C280AA11
:100C8F003F8000004120000042C80000447A00006D
:100C9F00461C400047C35000497424004B189680EF
:100CAF004CBEBC205A0E1BCA6753C21C749DC5AEE6
:100CBF00FB60065407601C2323120CEDEB543860C5
:100CCF0009120CD9120CE81208F8ECF8EDF9EEFA4B
:100CDF00EFCB22EB120CE880F1543803241C900C5C
:100CEF008FFE93FC0EEE93FD0EEE930ECE93FF222E
:10128300021727E493A3F8E493A34003F68001F243
:1012930008DFF48029E493A3F85407240CC8C3336C
:1012A300C4540F4420C8834004F456800146F6DF3B
:1012B300E4800B0102040810204080901582E47E34
:1012C300019360BCA3FF543F30E509541FFEE49330
:1012D300A360010ECF54C025E060A840B8E493A3F7
:1012E300FAE493A3F8E493A3C8C582C8CAC583CA22
:1012F300F0A3C8C582C8CAC583CADFE9DEE780BEDA
:0115A9000041
:100CFF00BB010689828A83E0225002E722BBFE02F3
:090D0F00E32289828A83E4932225
:100D1800BB010CE58229F582E5833AF583E0225090
:100D280006E92582F8E622BBFE06E92582F8E222DA
:0D0D3800E58229F582E5833AF583E49322F4
:100D4500BB010689828A83F0225002F722BBFE018D
:020D5500F32287
:100D5700EF8DF0A4A8F0CF8CF0A428CE8DF0A42EB0
:020D6700FE226A
:100D6900BC000BBE0029EF8DF084FFADF022E4CC6E
:100D7900F875F008EF2FFFEE33FEEC33FCEE9DEC37
:100D8900984005FCEE9DFE0FD5F0E9E4CEFD22ED7D
:100D9900F8F5F0EE8420D21CFEADF075F008EF2FC7
:100DA900FFED33FD4007985006D5F0F222C398FDB8
:050DB9000FD5F0EA2255
:0E0DBE00C3E49FFFE49EFEE49DFDE49CFC2246
:100DCC00FAE6FB0808E6F925F0F618E6CA3AF62228
:100DDC00D083D082F8E4937012740193700DA3A3A6
:100DEC0093F8740193F5828883E4737402936860BA
:060DFC00EFA3A3A380DFBA
:060E02008A838982E4737B
:1015F900EFB40A07740D121604740A309811A899E9
:10160900B8130CC2983098FDA899C298B811F63051
:0716190099FDC299F5992229
:00000001FF
