:03000000020B9957
:0C0B9900787FE4F6D8FD75812A020BE09D
:100DE200021601F4C100C183C102C1010214000054
:100DF200010A00011300020B0019020D001E020875
:020E02000000EE
:0A0F4700438901D2AFD2A9D28C2257
:03000B00020C25BF
:100C2500C0E0C0F0C083C082C0D075D000C000C095
:0D0C350001C002C003C004C005C006C00716
:100C4200758CF8758A300509E509700205083003CC
:100C520009AD13AF0A120DAC80077F3C7E00120E65
:100C620064E516C313FEE51713FFC3E5099FE50804
:0E0C72009E4008750800750900D200120EB5EC
:100C8000D007D006D005D004D003D002D001D000C8
:0B0C9000D0D0D082D083D0F0D0E03272
:100EB50030011ED3E5159400E51494004013E515A3
:100EC500151570021514E51545147005120F5CC251
:020ED5000122F8
:030F6100020F4735
:100D320030003AC200120EED8F128E118D108C0F00
:100D4200120AB58F0AAC0AE4120A81A804A905AAFC
:100D520006AB07AF12AE11AD10AC0F120803E4FBE5
:0E0D6200FA79C878421208F8120AB58F1322E7
:100EED00120D70AC06AD07E4120A7CE4FBFA7980B2
:050EFD00783D0208F839
:100CF00030023BAC0BAD0CE4120A7CAB12AA11A97A
:100D000010A80F1209FE5005120F67801AAC0DAD26
:100D10000EE4120A7CAB12AA11A910A80F1209FE48
:100D2000600F400D120F6A7FB87E0B020F17120F73
:020D3000672238
:0E0F3900120F61120ED7120D32120CF080F55D
:100E8D00C204D2917F05120F64C2917FC8120F6404
:100E9D007FC8120F64D2917F32120F64A291920417
:070EAD007F19120F64A2047B
:010EB400221B
:100E3B00E4F519F51A751908C291E51AC313F51AD9
:100E4B00D291309103431A807F19120F641519E563
:080E5B0019D3940050E2AF1A14
:010E6300226C
:020E11008F1937
:100E1300E4F51A751A08C291E5191392917F191214
:100E23000F64D291E519C313F519151AE51AD39472
:080E33000050E37F19020F6477
:100D7000E4F518FFFEFDFC120E8D7FCC120E117FE4
:100D800044120E117F0A120F02120E8D7FCC120E2A
:100D9000117FBE120E11120E3B8F18120E3BEF7F09
:0B0DA00000FEEF2518FDE43EFEAF054D
:010DAB002225
:060F5100EF24FF92902244
:050F5700E4FF020F5150
:050F5C007F01020F51AE
:100F1700AD07AC06200109120F578C148D15D201AD
:010F270022A7
:0C0E04000A21C0F9A4B0999282F88090F5
:100DAC008F1B8D1CE51B75F00A84FFE4FD120C9B58
:100DBC00E51B75F00A84AFF07D01120C9BE51C75E8
:100DCC00F00A84FF7D02120C9BE51C75F00A84AFBF
:060DDC00F07D03020C9BF8
:020C9B008D1DAD
:100C9D00E51DB401047E7F80027EFFE51D14600E0C
:100CAD0014600F14601024037038C2B2800AC2B3EE
:100CBD008006C2B48002C2B574212FF8E65EF580BD
:100CCD007F0A120F647580FFE51D14600D14600D11
:100CDD0014600D2403700BD2B222D2B322D2B422EF
:020CED00D2B57E
:010CEF0022E2
:100E64007C007D3C120B368E1B8F1C7C007D0A128D
:100E74000B367D02120C9BAE1BAF1C7C007D0A124C
:090E84000B36AF057D03020C9B47
:030F6400DFFE228B
:100F0200AE07AF061EEF600C7FF5120F647FF5127D
:050F12000F6480EE22D7
:100F280020050D7F02120F02200502B2043005FDD4
:010F38002296
:100ED700A2039204A2929205120F28A2029204A2E0
:060EE700939205020F28A2
:030F6700D29422FF
:030F6A00C294220C
:10080000020B21E86480F8E933E83360110460F0FA
:10081000ED33EC337009E8FCE9FDEAFEEBFF22045E
:1008200060DED3EB9FEA9EE99DE8C2E78CF0C2F759
:1008300095F0400CE8CCF8E9CDF9EACEFAEBCFFB25
:10084000120AEC85D0F05804700320D5B3E8047088
:10085000075002B2D5020B2B92D5EC0460F7E4CC22
:10086000C0E0C398F8603B94186008400DD0E0FBEE
:10087000020B03E4FBFAC9FC8028E830E406E4C973
:10088000FBE4CAFCE830E305E4C9CACBFCE8540742
:100890006010F8C3E913F9EA13FAEB13FBEC13FC4D
:1008A000D8F130F52FC3E49CFCEF9BFFEE9AFEEDF0
:1008B00099FDD0E0FBEF4E4D4C701222DB03020B92
:1008C00028EC2CFCEF33FFEE33FEED33FDED30E78B
:1008D000EB020B03EF2BFFEE3AFEED39FDD0E0FB10
:1008E00050130BBB0003020B2BED13FDEE13FEEFB9
:0808F00013FFEC13FC020B03E3
:1008F800EC4D6011E8497017ED33EC3304600DE4FA
:10090800FCFFFEFD22E933E8330470F8020B2112E4
:100918000AEC58046009E4CC2481500628500902E6
:100928000B2B284003020B28C0E0EB4A7044B98027
:1009380006D0E0FB020B17EF4E701CBD8008EBFFE2
:10094800EAFEE9FD80EBE98DF0A4FEE5F00209E19D
:10095800E9CDF9EAFEEBFFEF89F0A4FCE5F0CE89DA
:10096800F0A42EFFE435F0CD89F0A42DFEE435F097
:100978008067EF4E7005BD80D780C3EF8BF0A4ACC5
:10098800F0EE8BF0A42CFCE435F0F8EF8AF0A42C00
:10099800E5F038FCE433CB8DF0A42CFCE5F03BF813
:1009A800EE8AF0A42CFCE5F038F8E433CF89F0A403
:1009B8002CFCE5F038CF3400CE89F0A42FFFE5F009
:1009C8003EFEE433C98DF0A42EFEE5F039CD8AF061
:1009D800A42FFFE5F03EFEE43DFD33D0E0FB5007D9
:1009E8000BBB000F020B2BEC2CFCEF33FFEE33FE9E
:0609F800ED33FD020B03CC
:1009FE0074F8CC6480CCC86480C8F58204604FC3A0
:100A0E00EB9FF5F0EA9E42F0E99D42F0E89C45F03E
:100A1E00603C501DE5825FFFE582D313CB5BCBF4C8
:100A2E002B5582FB50280ABA002409B900200880F1
:100A3E001DE5825BFBE582D313CF5FCFF4C3132F8B
:100A4E005582FF50090EBE00050DBD00010CC3EB13
:100A5E009FF5F0EA9E42F0E99D42F0E89C45F06079
:090A6E0007CC4820E701B3EC229B
:100A770075F020800E75F010800575F0087D007EFA
:100A8700007F003392D530D503120B8BEC33401027
:100A9700EF33FFEE33FEED33FDEC33FCD5F0ED2203
:0E0AA700E5F0247EA2D513CC92E7CDCEFF223F
:100AB500EDD2E7CD33EC3392D524814006E4FFFE39
:100AC500FDFC22FCE4CFCECDCC24E0501174FF8098
:100AD500EDC3CC13CCCD13CDCE13CECF13CF047035
:070AE500F030D5DE020B8B9F
:100AEC00E9D2E7C933E833F892D5EDD2E7CD33EC50
:070AFC0033FC5002B2D522C9
:100B0300EC30E7100FBF000C0EBE00080DBD000453
:100B13000BEB6014A2D5EB13FCED92E7FD2274FFFF
:100B2300FCFDFEFF22E480F8A2D574FF13FC7D8058
:030B3300E480EF6C
:100BA500020F39E493A3F8E493A34003F68001F21E
:100BB50008DFF48029E493A3F85407240CC8C33351
:100BC500C4540F4420C8834004F456800146F6DF20
:100BD500E4800B0102040810204080900DE2E47EC1
:100BE500019360BCA3FF543F30E509541FFEE49315
:100BF500A360010ECF54C025E060A840B8E493A3DC
:100C0500FAE493A3F8E493A3C8C582C8CAC583CA06
:100C1500F0A3C8C582C8CAC583CADFE9DEE780BEBE
:010E100000E1
:100B3600BC000BBE0029EF8DF084FFADF022E4CCA3
:100B4600F875F008EF2FFFEE33FEEC33FCEE9DEC6C
:100B5600984005FCEE9DFE0FD5F0E9E4CEFD22EDB2
:100B6600F8F5F0EE8420D21CFEADF075F008EF2FFC
:100B7600FFED33FD4007985006D5F0F222C398FDED
:050B86000FD5F0EA228A
:0E0B8B00C3E49FFFE49EFEE49DFDE49CFC227B
:00000001FF
